:020000040800F2
:10000000E0070020CD010008350C00089509000824
:10001000310C0008D10200089F0F0008000000000A
:10002000000000000000000000000000C90C0008F3
:10003000D504000800000000370C0008DD0D0008A2
:10004000E7010008E7010008E7010008E7010008F0
:10005000E7010008E7010008E7010008E7010008E0
:10006000E7010008E7010008E7010008E7010008D0
:10007000E7010008E7010008E7010008E7010008C0
:10008000E7010008E7010008E7010008E7010008B0
:10009000E7010008E7010008E7010008E7010008A0
:1000A000E7010008E7010008E7010008E701000890
:1000B000410E0008E7010008E7010008E701000819
:1000C000E7010008E7010008E7010008E701000870
:1000D000E7010008B50E0008E7010008E701000885
:1000E000E7010008E7010008E7010008E701000850
:1000F000E7010008E7010008E7010008E701000840
:10010000E7010008E7010008E7010008E70100082F
:10011000E7010008E7010008E7010008E70100081F
:10012000E7010008E7010008E7010008E70100080F
:1001300000F002F800F03AF80AA090E8000C8244BF
:100140008344AAF10107DA4501D100F02FF8AFF29C
:10015000090EBAE80F0013F0010F18BFFB1A43F0A5
:1001600001031847D4140000F4140000103A24BF0F
:1001700078C878C1FAD8520724BF30C830C144BF0C
:1001800004680C607047000000230024002500264E
:10019000103A28BF78C1FBD8520728BF30C148BFEA
:1001A0000B6070471FB51FBD10B510BD00F033F8D0
:1001B0001146FFF7F7FF00F0C5FF00F051F803B458
:1001C000FFF7F2FF03BC00F0ECFE00000948804797
:1001D00009480047FEE7FEE7FEE7FEE7FEE7FEE729
:1001E000FEE7FEE7FEE7FEE704480549054A064B41
:1001F00070470000E10D000831010008E001002017
:10020000E0070020E0030020E00300207047704773
:10021000704770477047754600F028F8AE460500F5
:100220006946534620F00700854618B020B5FFF711
:10023000DBFFBDE820404FF000064FF000074FF015
:1002400000084FF0000B21F00701AC46ACE8C009F4
:10025000ACE8C009ACE8C009ACE8C0098D467047FD
:100260000446AFF300802046FFF7A9FF004870471F
:100270008001002008B50121042000F0DDFC4FF4CE
:100280008070ADF8000010208DF8030003208DF879
:1002900002006946044800F071FA4FF48071024888
:1002A00000F04DFB08BD00000008014010B50446F9
:1002B0002CB14FF48071054800F043FB04E04FF48B
:1002C0008071024800F03BFB10BD000000080140B7
:1002D00000BFFEE738B501210C2000F0ADFC002482
:1002E00013E01F4800EBC4008088ADF80000102028
:1002F0008DF8030003208DF80200194951F83400ED
:10030000694600F03BFA601CC4B2042CE9DB00240F
:1003100013E0144800EBC4008088ADF800004820CA
:100320008DF8030003208DF802000E4951F83400C7
:10033000694600F023FA601CC4B2042CE9DB0024F7
:100340000AE0074A02EBC4029188054A52F83400D9
:1003500000F0F7FA601CC4B2042CF2DB38BD0000D8
:10036000480000206800002070B5002434E005201B
:1003700000F048FE4A4A02EBC4029188484A52F80B
:10038000340000F0DCFA002519E0052000F03AFE08
:10039000444A02EBC5029188424A52F8350000F007
:1003A000C1FA28B90120404901EB8401485504E015
:1003B00000203D4901EB84014855681CC5B2042D5D
:1003C000E3DB374A02EBC4029188354A52F8340025
:1003D00000F0B7FA601CC4B2042CC8DB32480078C5
:1003E000012801D10C2070BD2F484078012801D18F
:1003F0000D20F8E72C488078012801D10E20F2E783
:100400002948C078012801D10F20ECE7264800795F
:10041000012801D10820E6E723484079012801D1CD
:100420000920E0E720488079012801D10A20DAE795
:100430001D48C079012801D10B20D4E71A48007A61
:10044000012801D10420CEE71748407A012801D1C4
:100450000520C8E71448807A012801D10620C2E7A8
:100460001148C07A012801D10720BCE70E48007B63
:10047000012801D10020B6E70B48407B012800D1BC
:10048000B1E70948807B012801D10220ABE706488B
:10049000C07B012801D10320A5E76320A3E700006A
:1004A0004800002068000020A600002010B5024689
:1004B0000021002000BF0AE042FA01F303F001032B
:1004C000C1F10704A3400344D8B24B1CD9B2082998
:1004D000F2DB10BD7047000010B56D48006842F2B5
:1004E0000F71884206D9C42000F0FAFA69A000F022
:1004F0005BFB10BD66480068B0F57A7F3CD3C42032
:1005000000F0EEFA624800684FF47A71B0FBF1F047
:100510003030C4B2204600F015FB5D4800684FF44F
:100520007A71B0FBF1F201FB12006421B0FBF1F033
:100530003030C4B2204600F005FB55480068642105
:10054000B0FBF1F201FB12000A21B0FBF1F000F167
:100550003004204600F0F6FA2E2000F0F3FA4C4862
:1005600000680A21B0FBF1F201FB120000F1300437
:10057000204600F0E7FA88E045480068642834D354
:10058000C42000F0ADFA202000F0DCFA40480068FA
:100590004FF47A71B0FBF1F201FB12006421B0FB61
:1005A000F1F03030C4B2204600F0CCFA3848006890
:1005B0006421B0FBF1F201FB12000A21B0FBF1F063
:1005C00000F13004204600F0BDFA2E2000F0BAFA07
:1005D0002F4800680A21B0FBF1F201FB120000F184
:1005E0003004204600F0AEFA4FE0294800680A289F
:1005F0002AD3C42000F074FA202000F0A3FAC5200A
:1006000000F06EFA202000F09DFA21480068642175
:10061000B0FBF1F201FB12000A21B0FBF1F000F196
:100620003004204600F08EFA2E2000F08BFA184895
:1006300000680A21B0FBF1F201FB120000F1300466
:10064000204600F07FFA20E0C42000F049FA202084
:1006500000F078FAC52000F043FA202000F072FA8A
:10066000C62000F03DFA302000F06CFA2E2000F099
:1006700069FA074800680A21B0FBF1F201FB120099
:1006800000F13004204600F05DFA00BF31E70000C1
:10069000200000202D2D2D2E2D00000010B58C20C7
:1006A00000F01EFA144800686421B0FBF1F030300D
:1006B000C4B2204600F046FA0F4800686421B0FB3F
:1006C000F1F201FB12000A21B0FBF1F000F130045D
:1006D000204600F037FA2E2000F034FA0648006871
:1006E0000A21B0FBF1F201FB120000F130042046B8
:1006F00000F028FA10BD00001C00002010B5832077
:1007000000F0EEF91C4800684FF47A71B0FBF1F08C
:100710003030C4B2204600F015FA2E2000F012FA54
:10072000154800684FF47A71B0FBF1F201FB12003A
:100730006421B0FBF1F03030C4B2204600F002FA80
:100740000D4800686421B0FBF1F201FB12000A21A0
:10075000B0FBF1F000F13004204600F0F3F9064858
:1007600000680A21B0FBF1F201FB120000F1300435
:10077000204600F0E7F910BD180000202DE9F041F7
:10078000024600250026002000230024002791F8BF
:1007900003C00CF00F0591F803C00CF0100CBCF175
:1007A000000F03D091F802C04CEA050591F800C093
:1007B000BCF1000F31D0146800202BE04FF0010C89
:1007C0000CFA00F3B1F800C00CEA03069E4220D1F7
:1007D00083004FF00F0C0CFA03F7BC4305FA03FC3F
:1007E0004CEA040491F803C0BCF1280F06D14FF085
:1007F000010C0CFA00FCC2F814C00AE091F803C026
:10080000BCF1480F05D14FF0010C0CFA00FCC2F806
:1008100010C0401C0828D1D31460B1F800C0BCF14E
:10082000FF0F34DD546800202EE000F1080C4FF07B
:10083000010808FA0CF3B1F800C00CEA03069E4266
:1008400021D183004FF00F0C0CFA03F7BC4305FADB
:1008500003FC4CEA040491F803C0BCF1280F05D155
:1008600000F1080C08FA0CF8C2F8148091F803C0E3
:10087000BCF1480F07D100F1080C4FF0010808FA4D
:100880000CF8C2F81080401C0828CED35460BDE894
:10089000F0810000F0B50A46002300240021002565
:1008A00000F00046B6F1004F02D11D4EF16901E0A3
:1008B0001B4E7168C0F3034583B200F44016B6F5D1
:1008C000401F08D121F07061154E766826F07066E1
:1008D000134F7E6012E000F48016B6F5801F06D13B
:1008E000032606FA05F4A14341F0706106E0460DC7
:1008F000360103FA06F6B14341F0706122B1460DAC
:10090000360103FA06F6314300F00046B6F1004F17
:1009100002D1034EF16101E0014E7160F0BD0000B3
:10092000000001400246002093680B400BB10120FB
:1009300000E0002070470146C86880B270474161FE
:10094000704701617047C1607047000008B5012120
:10095000082000F071F94FF40050ADF800001020AD
:100960008DF8030003208DF8020069460848FFF760
:1009700005FF4FF48050ADF8000048208DF80300CB
:1009800003208DF8020069460148FFF7F7FE08BD15
:10099000000C014000BFFEE710B501210D2000F062
:1009A0004BF901210148FFF775FF10BD000230002F
:1009B00010B50446102C33D2DFE804F008090A0B06
:1009C0000C0D0E0F1011333D897E898500BF00BFCD
:1009D00000BF00BF00BF00BF00BF00BF00BF3D4859
:1009E000007878B93C480068642817D23A48006813
:1009F00000EB8000400004EB840100EB410036492D
:100A000008600BE033480078012807D132480068BD
:100A100020443149086002202E490870FFF73EFE4D
:100A200055E000F039FAFFF739FE00202B49087035
:100A3000284908704BE027480078022812D1264840
:100A400000680A21B0FBF1F02349086008460068FD
:100A500000EB8000400008601E480078401E1D49E1
:100A6000087026E01B480078012812D11A48006857
:100A70006421B0FBF1F0184908600846006800EBFB
:100A800080004000086013480078401E114908703B
:100A90000FE01048007860B90F4800686421B0FB8F
:100AA000F1F00D49086008460068642148430A498E
:100AB0000860FFF7F3FD0AE00120084908700020F4
:100AC0000449087003E001200249087000BF00BF1C
:100AD00010BD00002D0000201C000020010000209F
:100AE00070B504464FF4005014494861012000F0ED
:100AF00089FA4FF4804011494861012000F082FAE0
:100B00004FF400400D490861012000F07BFA0C48C9
:100B1000FFF711FF00F47F462046FFF7C7FC304483
:100B200085B229460648FFF70EFF012000F06AFA59
:100B30004FF400400149486170BD000000100140C1
:100B40000008014070B504464FF400501449086194
:100B5000012000F057FA4FF480401149486101200C
:100B600000F050FA4FF400400D490861012000F0F8
:100B700049FA0C48FFF7DFFE00F47F462046FFF7F6
:100B800095FC304485B229460648FFF7DCFE01207B
:100B900000F038FA4FF400400149486170BD000090
:100BA000001001400008014010B5044603E0207821
:100BB000FFF7C8FF641C20780028F8DC10BD000097
:100BC00008B50121142000F037F8FF20ADF800002F
:100BD00010208DF8030003208DF8020069461248AA
:100BE000FFF7CCFD4FF46040ADF8000010208DF809
:100BF000030003208DF8020069460C48FFF7BEFD94
:100C00004FF4004009494861401048613820FFF71F
:100C100067FF0C20FFF764FF0620FFF761FF01204C
:100C2000FFF75EFF08BD0000000801400010014012
:100C300000BFFEE77047704729B1064A9269024338
:100C4000044B9A6104E0034A92698243014B9A6122
:100C5000704700000010024070B5002400201849C1
:100C6000086000BF1648843800680028FAD10025C3
:100C700013E0012012490860640000F0E9F9002047
:100C80001049C1F8B4010E488438006800B1641CF2
:100C9000012000F0DDF9681CC5B2182DE9DB012048
:100CA0000749086084F4000400F0D2F900200549E7
:100CB000C1F8B401012000F0CBF9204670BD00005E
:100CC000B481214200802142704710B500F002F843
:100CD00010BD00000CB50020019000903348006862
:100CE00040F480303149086000BF3048006800F4AB
:100CF000003000900198401C0190009818B90198AC
:100D0000B0F5A06FF1D12948006800F4003010B1AF
:100D10000120009001E0002000900098012843D1BC
:100D20002348006840F01000214908600846006828
:100D300020F0030008600846006840F002000860E8
:100D40001A484068194948600846406848600846A3
:100D5000406840F4806048600846406820F47C1099
:100D600048600846406840F4E8104860084600685B
:100D700040F08070086000BF0C48006800F0007010
:100D80000028F9D00948406820F00300074948606E
:100D90000846406840F00200486000BF03484068D1
:100DA00000F00C000828F9D10CBD00000010024032
:100DB00000200240042808D14FF0E021096941F0E9
:100DC00004014FF0E022116107E04FF0E0210969D2
:100DD00021F004014FF0E0221161704770470000DC
:100DE00010B51348006840F001001149086008463A
:100DF0004068104908400E494860084600680E499E
:100E000008400B4908600846006820F4802008600C
:100E10000846406820F4FE0048604FF41F008860D8
:100E2000FFF753FF4FF000600449086010BD000059
:100E3000001002400000FFF8FFFFF6FE08ED00E0A2
:100E400010B50121880700F016F870B10748017845
:100E50000078401C054A1070642902DB002011460E
:100E600008700121880700F003F810BD88000020F9
:100E7000CA430282704730B5024600200023002496
:100E8000158A05EA0103958905EA010413B10CB13D
:100E9000012000E0002030BD10B5FFF7DDFE034962
:100EA000086000200249086010BD0000100000200A
:100EB0001C00002010B540F225511C4800F040F8FD
:100EC000002831D0194800F065F8C4B2242C0BD1A9
:100ED0001748007840B91748007828B9002016490B
:100EE00008700120124908701148007858B1124862
:100EF00001780078401C104A1070104844540020BB
:100F00000E49127888540D2C05D00A2C03D00A48BB
:100F100000780C2808DD00200749087001200549E9
:100F2000087000200249087010BD00000038014020
:100F3000960000209700002098000020B6000020B6
:100F400070B50246002400230025002040F66A16F2
:100F5000B14200D100BFC1F3421501F01F030126C9
:100F600006FA03F3012D02D19689334006E0022DE3
:100F700002D1168A334001E0968A33400C120126D2
:100F800006FA04F41688344013B10CB1012000E0D5
:100F9000002070BD01468888C0F30800704700BF7C
:100FA000FEE7014600BF7047002106E0002200E096
:100FB000521CB2F5FA7FFBDB491C8142F6DB70471D
:100FC00010B56FF00400FFF7F5FE0A4800680A4903
:100FD000B0FBF1F0094908700846007800EB4001C9
:100FE000C1EBC0104FF6FF7101EAC0000449088050
:100FF00010BD00003400002000127A008A0000209A
:101000008C0000200146114A12884A434FF0E02329
:101010005A6100229A611A46126942F001021A616D
:1010200000BF4FF0E022106900F001021AB100F495
:101030008032002AF5D04FF0E022126922F001023E
:101040004FF0E0231A6100229A6170478C00002063
:101050000146114A12784A434FF0E0235A610022B8
:101060009A611A46126942F001021A6100BF4FF0FC
:10107000E022106900F001021AB100F48032002A67
:10108000F5D04FF0E022126922F001024FF0E02388
:101090001A6100229A6170478A000020F8B500208A
:1010A0000090FFF7D9FD0090224900980968884216
:1010B00003D800202049086033E01E4900980968E1
:1010C000401A0090009837281CD964210098B0FB82
:1010D000F1F201FB120037280AD30098B0FBF1F2BD
:1010E00001FB1200C0F164000099084400900BE07D
:1010F00064210098B0FBF1F201FB12000099081A7C
:10110000009001E000200090009800F084F906466D
:101110000A4A0B4B00F092F9044600F04FF90649D9
:1011200008600549098888B200F0D8F802490860CB
:10113000F8BD0000100000201800002033E197FAED
:101140007953713F0024FFF73BFFFFF725FCFFF7C2
:10115000C1F8FFF7FBFBFFF78DF84FF4FA70FFF7CC
:1011600051FFFFF72DFD4FF49670FFF74BFF8020E6
:10117000FFF7B6FC3EA0FFF717FDFFF78DFE8020BE
:10118000FFF7AEFC3FA0FFF70FFDC020FFF7A8FC64
:1011900041A0FFF709FDFFF781FA68E02046611CD6
:1011A000CCB2192845DD0024FFF778FF3F480068DE
:1011B00042F2107188420CD308463D4908608320F2
:1011C000FFF78EFC3BA0FFF7EFFC0120FFF76EF866
:1011D0002FE00020FFF76AF83548006833490968B6
:1011E000884205D03148006831490860FFF786FA27
:1011F00032480078012816D12C4800683049096827
:1012000048434FF47A71B0FBF1F02E4908602E4844
:101210000068096888420CD02A4800682A4908609A
:10122000FFF75AF905E0C420FFF75AFC27A0FFF7A3
:10123000BBFCFFF799F8274908706420FFF7B4FE5C
:101240002448007810280FDA2348007860B901207C
:10125000214908701F480078FFF7AAFB00201E49AB
:1012600008706420FFF7A0FE0120FFF79DFE95E7C0
:1012700057656C636F6D6520746F207573652120F1
:101280000000000057453A202E2020202050523ADE
:1012900020202E20000000004D4F4E3A2020202E0E
:1012A0002020202020202020000000001800002006
:1012B000240000202D2E2D2D2D00000001000020E7
:1012C0001C00002020000020280000202020202ECC
:1012D000200000002C000020000000207CB5024609
:1012E000002400200090019031480078052810DA91
:1012F0002F480078401C2E4D287028460078401E4C
:101300002C4D25F810202A480078401E35F8100092
:101310007CBD002107E0274D481C35F8100025F85A
:101320001100481CC1B20429F5DB224802810021CA
:1013300015E000230FE01F4830F811001D4D35F86F
:101340001350A84205D11DF80100401CC0B20DF891
:101350000100581CC3B2052BEDDB481CC1B20529A6
:10136000E7DB00210AE01DF80450481C1DF80000CE
:10137000854201DA481CC4B2481CC1B20429F2DB20
:1013800000210BE00B4830F811000B4D2D88A842CE
:1013900002D109480088BBE7481CC1B20429F1DB2F
:1013A000044830F81400044D288028460088AFE730
:1013B0002E0000209C000020300000204FEA115336
:1013C000A3F58063D3F11E03A8BFD3F1200C08DB83
:1013D0004FF0004242EAC12252EA505232FA03F080
:1013E000704709420BD4102BC4BF0020704703F58F
:1013F000787CBCF1FF3F05D04FF0FF3070474FF0D5
:101400000000704770B500F0C3F800BF4992248017
:1014100000207047F0E7B0FA80F310FA03F10AD029
:10142000C3F11D0303F580634FEA41504FEA0352B5
:1014300002EBD12170474FF000007047DFF848C140
:1014400070B51CEA111E1EBF1CEA13159EEA0C0F94
:1014500095EA0C0F00F06F8081EA030423EA4C1335
:101460004EEAD47E21EA4C1141F4801143F48013FA
:10147000AE44A1FB024CA0FB0365AEF17F7E3619A2
:1014800055EB0C05A1FB034C4CF10003A0FB021C27
:1014900016EB0C06654153F10003094218BF46F0F4
:1014A000010613F4007F0BD14FEA03314FEA0530F8
:1014B000340341EA155140EA16506FF003020AE086
:1014C0004FEAC3214FEAC520F40241EA555140EAF0
:1014D00056506FF0020202EB2E4201EB025585EAF4
:1014E000CE710AD05FEA440C18BF24F0004450F1DA
:1014F000000041F1000120EAD47040F2FE7C624518
:1015000000D270BDA84214BF4FF080444FF0404459
:10151000002E08BF0024BEF1806FA8BFA1F1C0411A
:10152000BDE8704080F282804FF0000001F1C041C0
:1015300001F0004170479EEA0C0F0CEA131518BF2A
:1015400095EA0C0F06D04FF0000081EA030E0EF072
:10155000004170BD00F01CF88900013E00F007B8A2
:1015600000F009B84FEA430C5FEA5C5C08D081EAFE
:10157000030100F05BB84FEA410C5FEA5C5CF6D116
:101580004FF00000014970470000FF070000F87F9E
:101590000EF1020E2EF0030E5EF8046B364205D4F7
:1015A000012A43EB030515F5001F12D8012841EB72
:1015B000010C1CF5001F0CD80ED14FEAD17C15F59B
:1015C000001F0CEB4C0C0CF1020C08BF4CEBD37C55
:1015D00004E04FF0080C01E04FEAD37C0CEB4C0523
:1015E00026FA05F606F00706B6F1040C06D20EEB55
:1015F000860CBDE870404CF0010C6047DFE80CF051
:10160000090B02024FF000414FF00000A1F500214C
:1016100070BD19461046012851EB010418BFD4F5DE
:10162000001484BF002001F0004170BD0808A0F53F
:1016300000114FEA310170475816000800000020E1
:101640009C0000006C010008F41600089C000020BB
:1016500044070000880100080000000000000000AE
:10166000000000000000000000000000000000007A
:10167000000000000000000000000000000000006A
:1016800000000000000000000000000000A24A046A
:101690000000000000000000010203040607080922
:1016A0000008014000800000000C0140080000001C
:1016B000000C014010000000000C01402000000060
:1016C000000C014040000000000C014080000000C0
:1016D000000C014000010000000C0140000200006D
:1016E00000000000000000000000000000000000FA
:0416F00000000000F6
:0400000508000131BD
:00000001FF
